:020000040800F2
:10000000A808002095020008533200086B2B000856
:1000100051320008AF0C0008B9450008000000008C
:100020000000000000000000000000004936000849
:10003000B10C000800000000553200084B360008E3
:10004000AF020008AF020008AF020008AF020008CC
:10005000AF020008AF020008AF020008AF020008BC
:10006000AF020008AF020008AF020008AF020008AC
:10007000AF020008AF020008AF020008AF0200089C
:10008000AF02000800000000AF020008AF02000845
:10009000AF020008AF020008AF020008AF0200087C
:1000A000AF020008AF020008AF020008AF0200086C
:1000B000AF020008C9360008D5360008AF020008B4
:1000C000AF020008AF020008AF020008AF0200084C
:1000D000AF020008AD450008AF020008AF020008FB
:1000E000AF020008AF020008AF020008AF0200082C
:1000F000AF020008AF020008AF02000800000000D5
:1001000000000000AF02000800000000AF0200087D
:10011000AF02000800000000E1360008AF0200084E
:10012000AF020008AF020008AF020008AF020008EB
:10013000AF0200080000000000000000AF0200084D
:10014000AF020008AF02000800000000000000003D
:10015000000000000000000000000000000000009F
:10016000000000000000000000000000AF020008D6
:10017000AF020008000000000000000000000000C6
:1001800000000000AF0200080000000000000000B6
:10019000000000000000000000000000000000005F
:1001A0000000000000000000AF020008AF020008DD
:1001B000AF020008AF020008AF0200080000000014
:1001C00000000000AF020008000000000000000076
:1001D000AF020008AF02000800F002F800F04AF891
:1001E0000AA090E8000C82448344AAF10107DA4592
:1001F00001D100F03FF8AFF2090EBAE80F0013F09A
:10020000010F18BFFB1A43F00103184720590000E3
:1002100040590000103A24BF78C878C1FAD8520774
:1002200024BF30C830C144BF04680C607047000070
:100230000023002400250026103A28BF78C1FBD8EF
:10024000520728BF30C148BF0B607047642900F0D7
:100250000181002070471FB504F05AFB00F0DCFC60
:1002600004000020002104F03DFB401C60601FBD25
:1002700010B510BD00F094FC1146FFF7ECFF04F040
:1002800041FA00F0BBFC03B4FFF7F2FF03BC00F03F
:10029000C7FC00000948804709480047FEE7FEE721
:1002A000FEE7FEE7FEE7FEE7FEE7FEE7FEE7FEE726
:1002B00004480549054A064B70470000B936000856
:1002C000D9010008A8020020A8080020A8040020E6
:1002D000A804002053EA020C00F069802DE9F04BDD
:1002E0004FF00006002B1FBFB3FA83F503FA05F4A5
:1002F00024FA05F65E4012BF1643B2FA82F502FAFE
:1003000005F4C5F120051EBF22FA05FC44EA0C04E1
:10031000203556EA044C4FEA144418BF641C4FF0D1
:1003200000084FF00009904271EB030C39D300290B
:1003300019BFB1FA81F701FA07F6B0FA80F700FAAF
:1003400007F6C7F120071EBF20FA07FC46EA0C0695
:100350002037B6FBF4FCA7EB0507103F07F01F0B97
:10036000CBF120060CFA0BFB2CFA06F644BFB34681
:100370000026202FA4BF5E464FF0000B5BEA060C60
:1003800008BF4FF0010B19EB0B09ABFB027C48EBEC
:100390000608C01B06FB02CC0BFB03CC71EB0C0167
:1003A000C1E70B46024641464846BDE8F08B13B50F
:1003B0004FF000004FF00001AFF30080BDE81C409B
:1003C000704700000FB41CB5074B06AA7B44694672
:1003D0000090059800F0D1F90020694600F0E0F99E
:1003E0001CBC5DF814FB0000D10300002DE9F041B6
:1003F0000E460446002020622046E168884730B35C
:10040000252805D0D4E901219047206A401CF2E755
:10041000E168204600278847050018D0A5F1410073
:10042000192802D820354FF4006732462946204665
:100430002760FFF70BFF40B1012804D0F61D26F01E
:1004400007060836D8E7361DD6E72846DAE7206AD9
:10045000BDE8F0812DE9F0410646002410687529B9
:10046000314616A510D0AFF30080002802DA4042D2
:1004700013A507E031688A0701D512A502E04907F4
:1004800004D511A5012401E0AFF3008000210A2268
:1004900006F1240709E0B0FBF2FCB0FBF2F302FB2B
:1004A0001C00303078541846491C0028F3D12346EC
:1004B0002A463046BDE8F04100F001B900000000D6
:1004C0002D0000002B000000200000000FB400B53C
:1004D0008DB010A9099000910B904FF0FF300A9059
:1004E00000200C90064878440690064878446A46F6
:1004F00007900F9909A800F05FF90DB05DF814FBA3
:10050000EF020000070300002DE9FF5F4FF0000835
:100510009946144646469169D2E901A7DDF838B0FC
:1005200001988847054659EA0B0005D009E0A16902
:100530000198761C88470546216A28468847002886
:10054000F5D1681C03D05FEACA7005D015E04FF002
:10055000FF3004B0BDE8F09F2068011D2160D0F895
:1005600000800AE05FEACA7001D108F8015BA16966
:10057000761C01987F1E88470546002F1ADD681CEF
:1005800018D0B9F1000F0DD0E81705EBD06042117B
:1005900020F01F0059F822102A1A01209040014231
:1005A000E0D107E0BBF1000FDCD12846216A884783
:1005B0000028D7D0E16901988847BBF1000F07D127
:1005C000002E05DD5FEACA7002D1002188F8001014
:1005D000A068B84203DDBBF1000F03D017B16FF084
:1005E0000100B6E73046B4E710B5431C02E010F84E
:1005F000011B71B18107FAD14FF0013202C88C1A88
:100600008C4314EAC211F9D0C01A0A0603D0C01EE6
:1006100010BDC01A10BD0A0401D0801E10BD090211
:10062000FCD0401E10BD4FF000020429C0F0128023
:1006300010F0030C00F01B80CCF1040CBCF1020F95
:1006400018BF00F8012BA8BF20F8022BA1EB0C016A
:1006500000F00DB85FEAC17C24BF00F8012B00F860
:10066000012B48BF00F8012B70474FF0000200B586
:10067000134694469646203922BFA0E80C50A0E8C5
:100680000C50B1F12001BFF4F7AF090728BFA0E873
:100690000C5048BF0CC05DF804EB890028BF40F83F
:1006A000042B08BF704748BF20F8022B11F0804F81
:1006B00018BF00F8012B70477047704770472DE94D
:1006C000F0470D4699469246044600F12408016819
:1006D000880604D5E06921F01001216000E00120C6
:1006E000A84201DD471B00E00027A1697A1902EB4F
:1006F0000900081AA0612078C00602D42046AFF392
:100700000080002608E0D4E901211AF8060090478D
:10071000206A401C761C20624E45F4DB2078C0061F
:100720000AD52046AFF3008006E0D4E9012130204D
:100730009047206A401C2062381EA7F10107F4DCB4
:1007400007E0D4E9012118F805009047206A401C11
:100750002062281EA5F10105F3DC2046AFF30080DE
:100760002078000602D50220BDE8F0870120FBE7D3
:1007700001694A1C02610878704700B58FB0CDE965
:1007800001310021059105497944CDE90310114655
:100790006846FFF72BFE0FB000BD0000E5FFFFFF2E
:1007A0000A6802F8010B0A607047000002681144F1
:1007B0001378016018467047D1600549794451614A
:1007C00004497944116200211161114600F02EB8EC
:1007D000EDFFFFFF53000000426842B1016811F8CD
:1007E000013B23B1521EC0E9001218467047012197
:1007F000C160881E704742685AB1C368016843B936
:1008000083688B4205D0491E521CC0E900120020AB
:1008100070474FF0FF30704710B5044600F0E6F91E
:100820000068005D00F0010010BD00002DE9F34FED
:100830004FF0000A0C4656468DB001200C9001F195
:100840000C000B9062690B9801219047051E2DD07A
:10085000252D2CD0216A8847C0B162690B980121EF
:100860009047216A88470028F7D16269411E0B989A
:10087000904700E0761CA1690D988847216A884757
:100880000028F7D1E1690D988847DBE7A1690D9849
:100890008847A842074601D1761CD3E7E1690D9845
:1008A00088477F1C02D1BAF1000F6FD06BE16269FB
:1008B0000B9800273D46394690472A2804D16269A3
:1008C0000B98012190470125DFF8D08262690B98CF
:1008D00001219047A0F130010A290AD24745E5DC01
:1008E00007EB870100EB4107303FDFD445F01005EF
:1008F000ECE7E90601D46FF000476C280AD04C28D9
:1009000014D0682815D06A280DD074281CD07A28F5
:100910001AD01DE062690B98012190476C2802D023
:1009200045F0040514E045F002050DE045F0200512
:100930000AE062690B9801219047682802D045F0CF
:10094000080505E045F4006562690B9801219047B0
:10095000C4E9015765283DD019DC58287AD00CDC51
:10096000452837D004DC252826D041289ED131E007
:1009700046282FD0472899D12CE05B2877D06128D2
:1009800028D063287CD0642823D15AE0F6E06F2871
:1009900048D008DC66281DD067281BD0692821D0E4
:1009A0006E2816D127E0702845D0732868D07528A6
:1009B00047D078280DD14DE0A1690D9888472528AA
:1009C00005463FF469AFE1690D9888476D1C3FF417
:1009D0006AAFD8E00D9923466A466FF00100AFF385
:1009E0000080C5E045F0400023464FF00002606003
:1009F000A80736D43EE0E8077FF447AF2068011D22
:100A000021600068290501D506701BE7290701D57B
:100A1000068017E7A90703D5F117C0E9006111E7C0
:100A200006600FE745F0400023464FF00802606083
:100A3000A80716D41EE040F60E0125EA010060600A
:100A400016E045F0400023464FF00A026060A80718
:100A500007D40FE045F040006060A80708D52346A2
:100A600010220D996FF00100AFF3008080E007E0E5
:100A7000102223460D996FF00100AFF3008077E05C
:100A80004FF0000963284F46C8464B46CB4602D07C
:100A90005B2806D038E0E80601D40120A0600127D9
:100AA00032E06269D4F80CB00B98012190475E28BF
:100AB00007D14FF0010949466269D4F80CB00B9890
:100AC0009047216939B900210A4603AB43F8212038
:100AD000491C0829FADBD8B3216949B308F1010898
:100AE00062690B98012190475D28F4D1B9F1000F9C
:100AF00009D0002003A951F82020D24341F820203A
:100B0000401C0828F7DB03AB2069002820794FEA56
:100B100040701ED05B462246CDF80080CDE901979B
:100B20000D9900286FF0010020DAAFF300801FE07C
:100B3000C11703AA00EBD1614B1121F01F0102EB99
:100B40008302411A13680120884003431360C7E7FA
:100B500019E00D99224600286FF00100009702DA93
:100B6000AFF3008004E0FFF7CFFC01E0AFF30080BB
:100B700000280ADA401C06D10C9820B14FF0FF3053
:100B80000FB0BDE8F08F5046FAE7E90701D10AF14E
:100B9000010A064400200C9054E60000CCCCCC0C9A
:100BA000754600F035F8AE4605006946534620F01C
:100BB0000700854618B020B5FFF77AFBBDE8204056
:100BC0004FF000064FF000074FF000084FF0000B09
:100BD00021F00701AC46ACE8C009ACE8C009ACE8BC
:100BE000C009ACE8C0098D467047000010B500F0A0
:100BF00013F8001D10BD00BFED3C000010B5044609
:100C0000AFF300802046BDE81040FFF73CBB00007A
:100C100000487047480200200048704768020020E2
:100C200001491820ABBEFEE7260002004FF0013C50
:100C300050F8042B51F8043B9A4221D1A2EB0C034B
:100C4000934313EACC1317D150F8042B51F8043B0B
:100C50009A4215D1A2EB0C03934313EACC130BD1A8
:100C600050F8042B51F8043B9A4209D1A2EB0C0333
:100C7000934313EACC13DBD04FF00000704700BF62
:100C8000D01A01BAB1FA81F101F0180122FA01F08B
:100C9000CB40C1F12001DBB2C0B2C01A2CFA01F383
:100CA000D11A914311EAC311E6D170477047FEE7AC
:100CB0007047002240F6B83306E00021491C89B293
:100CC0009942FBD3521C92B28242F6D3704772B65D
:100CD000FEE710B590F8253000210122022B03D049
:100CE0000421C163012122E003681C6824F00E0482
:100CF0001C60836C1C6824F480741C6003681C688E
:100D000024F001041C6090F84430046C03F01F03CD
:100D100002FA03F36360D0E913345C60436D33B1CE
:100D20001C6824F480741C60D0E916345C6080F880
:100D30002520002280F82420084610BD70B590F8C8
:100D40002520002401212346022A07D00422C26361
:100D500080F8251080F82430012429E00268156805
:100D600025F00E0515600268156825F0010515606F
:100D7000826C156825F48075156090F84420056C28
:100D800002F01F0201FA02F26A60D0E913255560F1
:100D9000426D32B1156825F480751560D0E91625CD
:100DA000556080F8251080F82430816B01B18847A8
:100DB000204670BD70B5044600F03CF90546601C45
:100DC00002D004484068044400F034F9401BA042BB
:100DD000FAD370BD100000202DE9F04FDFF820920B
:100DE000002301260324A9F1040B85B00F2709F184
:100DF000040AABF1040EFAE006FA03F52A407CD0AF
:100E000091F804C00CF0030CBCF1010F02D0BCF14E
:100E1000020F26D1D0F808C0CDF800C04FEA430C2D
:100E200004FA0CF8CDF810C0DDF800C02CEA080C6C
:100E3000CDF800C0D1F80C80DDF810C008FA0CF82D
:100E4000DDF800C048EA0C08C0F80880D0F804C0FB
:100E50002CEA050C0D79C5F300159D4045EA0C05FB
:100E600045600D79ED43AD070ED0C5684FEA4308E4
:100E700004FA08FC25EA0C05D1F808C00CFA08FCB5
:100E80004CEA050CC0F80CC00D7905F00305022DE5
:100E900016D1DD0800EB850CCDF808C0DCF8208009
:100EA0005D074FEAD56C07FA0CF528EA05080D69CD
:100EB00005FA0CF5DDF808C045EA0805CCF8205025
:100EC00005684FEA430CCDF808C004FA0CFC25EA8B
:100ED0000C0591F804C00CF00308DDF808C008FA0E
:100EE0000CF848EA0508C0F800804D6815F4403F4A
:100EF0007CD0444DD5F860C000E077E04CF0010CA8
:100F0000C5F860C02D6E23F0030C05F001050095B7
:100F10003D4D65440295AD684FEA837C4FEA1C78ED
:100F200007FA08FC25EA0C05B0F1904F06D0DFF86F
:100F3000DCC0604505D14FF0010C20E04FF0000C03
:100F40001DE0DFF8CCC0604502D14FF0020C16E086
:100F5000DFF8C0C0604502D14FF0030C0FE0DFF8AE
:100F6000B8C0604502D14FF0040C08E0DFF8ACC017
:100F7000604502D14FF0050C01E04FF0060C0CFA71
:100F800008FC4CEA050C029DC5F808C0D9F80050D1
:100F9000CC46D1F8048095435FEAC82800D51543B4
:100FA000CCF80050DAF80050D446D1F804809543CC
:100FB0005FEA882800D51543CCF80050DBF80050D4
:100FC000DC46D1F8048095435FEA883800D51543A4
:100FD000CCF80050DEF80050F446D1F80480954378
:100FE0005FEAC83800D51543CCF800505B1C0A688E
:100FF00032FA03F57FF400AF05B0BDE8F08F0000D2
:1010000008040140001002400000014000040048B4
:1010100000080048000C0048001000480014004878
:101020000069084000D0012070470AB18161704713
:1010300081627047014880687047000010000020FE
:1010400002488168426811448160704710000020A6
:1010500010B50024032000F073F80F2000F008F80A
:1010600008B1012401E000F025F8204610BD000081
:1010700070B50E4E05460024706898B14FF47A7131
:10108000B1FBF0F00A490968B1FBF0F000F064FD33
:1010900040B9102D06D200222946501E00F030F82B
:1010A000356000E00124204670BD000010000020E3
:1010B0001C0000200A4882B0016E41F00101016667
:1010C000016E01F001010091816D41F08051816557
:1010D000806D00F08050009002B000F0A1B80000D8
:1010E00000100240002809DB00F01F02012191409E
:1010F0004009800000F1E020C0F8001170470000B6
:10110000F0B40E4B1B680C46C3F30223C3F1070572
:10111000042D00D90425191D072901D2002300E060
:10112000DB1E012606FA05F1491E214099409E402A
:10113000761E16403143F0BC03F03FBA0CED00E0E0
:10114000064900F0070208684FF6FF03184040EA1E
:101150000220034A10430860704700000CED00E0D5
:101160000000FA052B492C4B0A6832214A432B49CF
:1011700040B1B0F5007F086829D020F4C06040F489
:1011800080602CE00868C0F34120022804D051F8A8
:10119000800F20F4807022E0D1F8800020F480706D
:1011A000C1F88000086820F4C06040F40070086056
:1011B000B2FBF3F0401C00E0401E4A69520501D525
:1011C0000028F9D1486940050AD503207047C0F3CB
:1011D0004120022806D051F8800F40F4807008604A
:1011E00000207047D1F8800040F48070C1F8800082
:1011F000086820F4C06040F400700860B2FBF3F0AF
:10120000401C00E0401E4A695205DBD50028F9D198
:10121000D8E700001C00002040420F000070004092
:101220000248816841F4804181607047007000404D
:101230002DE9F8430446006800269D4D00035ED565
:10124000A86D0027C00008D4A86D40F08050A865A4
:10125000A86D012700F080500090DFF85892D9F86F
:10126000001041F48071C9F80010FFF7E3FE8046DA
:1012700006E000BFFFF7DEFEA0EB080002282BD837
:10128000D9F80000C005F5D5D5F8900010F44070ED
:1012900014D0216C814211D0D5F89000D5F890106F
:1012A00020F4407041F48031C5F89010D5F89010CA
:1012B00021F48031C5F89010C5F89000C00711D016
:1012C000FFF7B8FE804641F2883907E0FFF7B2FE2B
:1012D000A0EB0801494501D903260BE0D5F89000A1
:1012E0008007F3D5D5F89000216C20F440700843B6
:1012F000C5F890001FB1A86D20F08050A865207837
:10130000C00707D0D5F88800616820F003000843C3
:10131000C5F888002078800707D5D5F88800A1682F
:1013200020F00C000843C5F888002078400707D556
:10133000D5F88800E16820F030000843C5F888003F
:101340002078000707D5D5F88800216920F0C00073
:101350000843C5F888002078800607D5D5F88800AE
:10136000616920F440600843C5F888002078400691
:1013700007D5D5F88800A16920F440500843C5F886
:1013800088002078000607D5D5F88800E16920F4A8
:1013900040400843C5F888002088C00507D5D5F827
:1013A0008800216A20F440300843C5F8880020886E
:1013B000800507D5D5F88800616A20F440200843ED
:1013C000C5F88800208840050FD5D5F88800A16AA7
:1013D00020F440100843C5F88800A06AB0F5801FCB
:1013E00003D1E86840F48010E860208800050FD53C
:1013F000D5F88800E16A20F440000843C5F8880069
:10140000E06AB0F5800F03D1E86840F48010E8602E
:101410002088C0040FD5D5F88800216B20F04070DB
:101420000843C5F88800206BB0F1807F03D1E868DD
:1014300040F48010E86020884FF0006180040ED5F1
:10144000D5F88800626B20F040601043C5F8880032
:10145000606B884203D1E86840F48010E86020881F
:1014600040040ED5D5F88800A26B20F040601043F0
:10147000C5F88800A06B884203D1E86840F480106A
:10148000E860208800040FD5D5F88800E16B20F0D3
:1014900040500843C5F88800E06BB0F1805F03D18D
:1014A000E86840F48030E8603046BDE8F88300002A
:1014B00000100240007000402DE9F0470E46050084
:1014C0004FF0000725D0DFF8AC81D8F8000000F01D
:1014D0000F00B0420CD2D8F8001021F00F013143B8
:1014E000C8F80010D8F8000000F00F00B04210D18A
:1014F0002968614CC80741F2883A5AD06868DFF819
:101500007C91032808D0022820682DD040050028AF
:101510002CDB0120BDE8F08720688001F9D5E06868
:1015200000F00302E068C0F30310401C032A19D046
:10153000534A00BFB2FBF0F0E268C2F30622504308
:10154000E268C2F34162521C5200B0FBF2F048451F
:1015500017D9A06810F0F00F0CD0880711D5A86833
:1015600040B10EE0474AE5E78003D0E700F0B6F867
:10157000484506D9A06820F0F00040F08000A06047
:101580008027A068696820F003000843A060FFF787
:1015900051FD814606E000BFFFF74CFDA0EB0901BD
:1015A00051453AD8A068696800F00C00B0EB810F93
:1015B000F2D12868810714D5400703D5A06840F40C
:1015C000E060A0602878000705D5A06820F460508E
:1015D00040F4E060A060A068A96820F0F000084333
:1015E00004E0802F03D1A06820F0F000A060D8F8BC
:1015F0000010404601F00F01B14216D9016821F0F8
:101600000F0131430160FFF715FD074607E000BFFA
:10161000FFF710FDC11B514501D903207AE7D8F827
:10162000000000F00F00B042F2D12878400705D545
:10163000A068E96820F4E0600843A060287800070B
:1016400006D5A068296920F4605040EAC100A06076
:1016500000F044F8A1680C4AC1F30311515C01F099
:101660001F01C8400949086009480068BDE8F04703
:10167000FFF7FEBC002002400010024000B4C4048A
:101680000024F40000366E01424900081C000020CE
:10169000100000200548064900688968054AC1F322
:1016A0000221515C01F01F01C84070471C0000205E
:1016B0000010024052490008054806490068896840
:1016C000054AC1F3C221515C01F01F01C8407047B7
:1016D0001C0000200010024052490008184910B5B3
:1016E0008868C0F381021748012A0BD08A68164B1C
:1016F000C2F38102022A06D08A68C2F38102032A59
:1017000003D0002010BD184610BDCA6802F00304C3
:10171000CA68C2F30312521C032C02D0B0FBF2F0D1
:1017200001E0B3FBF2F0CA68C968C2F30622504375
:10173000C1F34161491C4900B0FBF1F010BD00004C
:10174000001002400024F40000366E012DE9F84339
:1017500004007AD02078FA4DC00747D0A868E9681D
:1017600000F00C0001F003010C2802D0082817D06B
:1017700001E0032914D06068B0F5803F17D0B0F5C0
:10178000A02F286817D020F480302860286820F423
:10179000802028606068E0B1FFF74CFC064614E04A
:1017A0002868800322D560680028D2D01EE028680F
:1017B00040F48030EDE740F480202860F7E700BF78
:1017C000FFF738FC801B642870D828688003F7D5A1
:1017D0000CE0FFF72FFC064605E000BFFFF72AFCF0
:1017E000801B6428F0D828688003F7D4207880070D
:1017F0004CD5A868E96800F00C0001F003010C2842
:1018000002D004280DD001E002290AD0E0680028A7
:1018100028682BD040F480702860FFF70BFC064648
:1018200019E02868400502D5E068002891D0686872
:10183000217C20F0FE4040EA01606860C1480068F9
:10184000FFF716FC002800D120E076E1FFF7F2FB5D
:10185000801B0228B8D828684005F7D56868217C25
:1018600020F0FE4040EA016068600FE020F48070E4
:101870002860FFF7DFFB064605E000BFFFF7DAFB55
:10188000801B0228A0D828684005F7D420780007DC
:1018900029D560690028D5F8940013D040F00100E4
:1018A000C5F89400FFF7C6FB064606E090E000BFCF
:1018B000FFF7C0FB801B022886D8D5F8940080076C
:1018C000F6D510E020F00100C5F89400FFF7B2FB58
:1018D000064604E0FFF7AEFB801B022878D8D5F857
:1018E00094008007F6D42078400761D5A86D0026C3
:1018F000C00008D4A86D40F08050A865A86D0126EE
:1019000000F08050009090480168C90511D401682A
:10191000804641F480710160FFF78CFB074604E0CC
:10192000FFF788FBC01B022852D8D8F80000C0057A
:10193000F6D5A068012815D00528D5F8900016D056
:1019400020F00100C5F89000D5F8900020F00400C8
:10195000C5F89000A06841F28838B8B1FFF76AFB7B
:1019600007460EE0D5F8900040F00100F0E740F0A7
:101970000400C5F89000F5E7FFF75CFBC11B41458B
:1019800026D8D5F890008007F6D50CE0FFF752FB7B
:10199000074604E0FFF74EFBC11B414518D8D5F8B8
:1019A00090008007F6D41EB1A86D20F08050A86585
:1019B0002078800629D5A0690028D5F8980013D092
:1019C00040F00100C5F89800FFF734FB064606E03A
:1019D00077E000BFFFF72EFB801B022877D8D5F8F1
:1019E00098008007F6D510E020F00100C5F89800B7
:1019F000FFF720FB064604E0FFF71CFB801B0228D4
:101A000065D8D5F898008007F6D4E069F0B3A968E6
:101A1000C1F38101032961D00228286820F0807079
:101A200028600BD0E86820F00300E860E8684749C8
:101A30000840E860FFF7FEFA04464BE0FFF7FAFAC9
:101A4000064604E0FFF7F6FA801B02283FD8286814
:101A50008001F7D4F4E908016FF00F0202EB0111E5
:101A60000843218A5204490802EB4151A26841EA25
:101A700002210843217D4FF07E42490802EB41617B
:101A80000843217B40EAC160E96800E062E0304A37
:101A900011400843E860286840F080702860E868DA
:101AA00040F08070E860FFF7C5FA044605E000BF2B
:101AB000FFF7C0FA001B022809D828688001F7D573
:101AC00048E004E0FFF7B6FA001B022802D9032021
:101AD000BDE8F88328688001F4D43BE00128F7D002
:101AE000E868226A00F00301914226D1616A00F0A1
:101AF000F0020901103991421FD1A26A00F4FE419F
:101B0000B1EB022F19D194F82C2000F07841B1EB01
:101B1000C26F12D1218E00F4C00249084905A1F517
:101B20000011914209D194F8341000F0C0604908C6
:101B30004906A1F1007181420CD00120C8E70000E4
:101B4000001002401000002000700040FFFFEEFE79
:101B50000C809F010020BBE710B5401EB0F1807FD4
:101B600001D3012010BD4FF0E02460610F21601708
:101B700002F023FD0020A06107202061002010BD9D
:101B8000704770477047704770477047F0B590F8DE
:101B90003C20012A3AD0012580F83C50022280F8EE
:101BA0003D2003685A689C68194E1A4FB34201D011
:101BB000BB4204D122F4700C4A6842EA0C02DFF8FE
:101BC00058C002EA0C02D1F800C04CEA020CC3F87B
:101BD00004C00268B2420DD0B2F1804F0AD00F4B60
:101BE0009A4207D00E4B9A4204D0BA4202D00D4B13
:101BF0009A4204D1896824F080031943916080F8E7
:101C00003D50002180F83C100846F0BD0220F0BD98
:101C1000002C0140003401408FFFFFFD0004004014
:101C20000008004000400140704710B5040003D098
:101C300094F83D0010B107E0012010BD002084F8A9
:101C40003C00204600F022F8022084F83D00211DCF
:101C5000206801F04BFD012084F8480084F83E0024
:101C600084F83F0084F8400084F8410084F8420082
:101C700084F8430084F8440084F8450084F8460062
:101C800084F8470084F83D00002010BD08B51E4AC6
:101C900001681E4891420ED1816D41F002018165BB
:101CA000806D002200F00200009011461D20FFF719
:101CB00027FA1D2022E0164A91420ED1816D41F093
:101CC00004018165806D002200F00400009011463F
:101CD0001E20FFF715FA1E2010E00E4A914211D186
:101CE000816D41F010018165806D002200F01000CF
:101CF000009011463620FFF703FA3620BDE8084071
:101D0000FFF7F0B908BD00000004004000100240D9
:101D1000000800400010004090F83D10012901D05B
:101D200001207047022180F83D100168CA6842F026
:101D30000102CA600068104988420ED0B0F1804F9D
:101D40000BD00E49884208D00D49884205D00D4974
:101D5000884202D00C49884207D181680B4A114061
:101D6000062906D0B1F5803F03D0016841F001019A
:101D70000160002070470000002C0140000400407A
:101D8000000800400034014000400140070001000D
:101D90000168CA6822F00102CA6001680A6A41F259
:101DA00011131A4207D10A6A9B001A4203D10A682A
:101DB00022F001020A60012180F83D1000207047E6
:101DC00070B5044690F83C000025012814D0012687
:101DD00084F83C60022084F83D0022689068364B0D
:101DE000184020F47F409060086870282ED010DCE6
:101DF00010F00F0F03D021E04FF0020070BD4FEA4A
:101E00002012072A1AD2DFE802F0525252524A3800
:101E100040002A4BC21A984249D009DCB0F5805FD5
:101E20000DD0B0F5005F1CD0B0F1101F06D13EE020
:101E3000102A3CD0202A3AD0502A38D0012584F8E4
:101E40003D60002084F83C00284670BDCB68D1E995
:101E50000121206801F0AFFC2068816841F0770122
:101E600009E0CB68D1E90121206801F0A4FC2068D9
:101E7000816841F480418160E1E7CA68496820686F
:101E800001F044FE5021206806E0CA6849682068D5
:101E900001F04DFE6021206801F098FCCFE7CA6890
:101EA0004968206801F032FE40212068F4E722688A
:101EB00001461046F0E7000088FFCEFF200010002A
:101EC00090F83C20012A0CD0012200F83C2F02237C
:101ED000437050F83C3C5961427000210170084643
:101EE000704702207047704770B50446006801696A
:101EF0004FF00005C943890715D4C168C943890754
:101F000011D4E91E016101202077206880698007D3
:101F1000204602D0FFF7E7FF04E000F009F9204671
:101F200000F0DCF9257720680169C943490717D417
:101F3000C168C943490713D46FF00401016102204D
:101F400020772068806910F4407F204602D0FFF798
:101F5000CAFF04E000F0ECF8204600F0BFF9257756
:101F600020680169C943090716D4C168C943090734
:101F700012D46FF008010161042020772068C06945
:101F80008007204602D0FFF7AEFF04E000F0D0F853
:101F9000204600F0A3F9257720680169C943C906E6
:101FA00017D4C168C943C90613D46FF01001016189
:101FB000082020772068C06910F4407F204602D0B6
:101FC000FFF791FF04E000F0B3F8204600F086F937
:101FD000257720680169C943C90708D1C168C94389
:101FE000C90704D1891E0161204600F0F7F9206875
:101FF0000169C943090609D4C168C943090605D462
:102000006FF0800101612046FFF7BBFD2068016988
:10201000C943C90509D4C168C943090605D46FF489
:10202000807101612046FFF7ABFD20680169C9435B
:10203000490609D4C168C943490605D46FF0400177
:102040000161204600F090FA20680169C9438906C1
:1020500009D4C168C943890605D46FF02001016124
:102060002046FFF78FFD20680169C943C90209D4E2
:10207000C168C943C90205D46FF4801101612046CB
:10208000FFF782FD20680169C943890209D4C1684C
:10209000C943890205D46FF4001101612046FFF79E
:1020A00072FD20680169C943490209D4C168C94366
:1020B000490205D46FF4800101612046FFF765FDF8
:1020C00020680169C94309020BD4C168C9430902E8
:1020D00007D46FF4000101612046BDE87040FFF7AE
:1020E000A3BD70BD10B586B0044614216846FEF746
:1020F000BCFA2068B0F1804F15D10C48C16C41F09A
:102100000101C164C06C694600F001000590022025
:1021100000900190002002900390012004904FF065
:102120009040FEF759FE06B010BD000000100240BE
:10213000704770B5044690F83C0000260D46012813
:102140000BD0012084F83C000C2A4AD007DC82B175
:10215000042A20D0082A06D131E0022070BD102ABE
:1021600053D0142A63D00126002084F83C00304666
:1021700070BD206801F034FB2068816941F00801DE
:1021800081612068816921F0040181612068816991
:102190002A69114311E0206801F070FB2068816911
:1021A00041F4006181612068816921F4806181616D
:1021B000206881692A6941EA02218161D4E72068A7
:1021C00001F0A4FB2068C16941F00801C1612068E9
:1021D000C16921F00401C1612068C1692A69114304
:1021E00011E0206801F0DAFB2068C16941F4006168
:1021F000C1612068C16921F48061C1612068C16941
:102200002A6941EA0221C161AEE7206801F00EFCB3
:102210002068016D41F0080101652068016D21F021
:10222000040101652068016D2A69114311E02068ED
:1022300001F034FC2068016D41F400610165206803
:10224000016D21F4806101652068016D2A6941EA10
:102250000221016588E710B5040003D094F83D0021
:1022600010B107E0012010BD002084F83C0020469A
:1022700000F022F8022084F83D00211D206801F0C2
:1022800035FA012084F8480084F83E0084F83F00C5
:1022900084F8400084F8410084F8420084F8430048
:1022A00084F8440084F8450084F8460084F8470028
:1022B00084F83D00002010BD08B50068B0F1804FE3
:1022C00008D10548816D41F001018165806D00F004
:1022D0000100009008BD000000100240704700009F
:1022E00030B50446022269B1042912D0082917D05A
:1022F0000C291CD0102921D094F84300012824D0A7
:10230000012030BD94F83E000128F9D184F83E2028
:102310001DE094F83F000128F2D184F83F2016E038
:1023200094F840000128EBD184F840200FE094F8A5
:1023300041000128E4D184F8412008E094F84200EB
:102340000128DDD184F8422001E084F843200122F5
:10235000206801F023FA194B20681949194A98425C
:1023600009D0884207D0904205D0174DA84202D02C
:10237000164DA84203D1456C45F4004545642068DC
:1023800098420CD0B0F1804F09D0114B984206D042
:10239000104B984203D0884201D0904207D1816807
:1023A0000D4A1140062906D0B1F5803F03D00168DF
:1023B00041F001010160002030BD0000002C01400F
:1023C0000034014000400140004401400048014009
:1023D0000004004000080040070001002DE9F04122
:1023E0000646006851490127002588424DD1DFF893
:1023F000408101214046FEF713FE00B101204D4C03
:10240000022160704046FEF70BFE00B101206073B0
:1024100004214046FEF704FE00B101206076012150
:102420004FF09040FEF7FCFD00B1012084F825003C
:102430005FF0000101EB410014F8202022B1012AD5
:102440000AD0022A1ED112E004EB80025378CBB9E5
:1024500004F82070556015E004EB8002527812B148
:1024600004F820500EE0022204F820200AE004EBD9
:1024700080025378012B14D05068401C50604628CD
:1024800000D91772491C0429D4DB2B4930682B4C26
:10249000884229D16068401C6060B0F5FA7F07D09F
:1024A00022E004F8205050684628EBD89770E9E7FE
:1024B00064213222C800656002F06AF92048077082
:1024C0002048057020480570204805702048057098
:1024D000204805702048057020480570002002F053
:1024E000F1F83046FFF754FC1D49306888421BD193
:1024F0001C480078002817D0A068401CA060E16844
:10250000491CE16002280CD05FF0020002F0DAF80A
:10251000E068322808D13046E560BDE8F041FFF7B9
:1025200037BC0020A560F1E7BDE8F0810004004061
:1025300000040048F80100200008004028000020A6
:1025400004000020000000200500002006000020FC
:1025500007000020010000200200002003000020EE
:102560000010004009000020704790F880100129F9
:1025700018D0012180F880102421C0F8841050F870
:10258000641B0A680B6823F001030B6022F0005102
:102590000022026050F8643C196020210162027739
:1025A00010467047022070477047704770B5044668
:1025B00090F8800001281DD0012084F8800024209C
:1025C000C4F8840020680568026822F001020260F5
:1025D0002068826822F060620A438260204601F02F
:1025E000B9FA206805602020C4F88400002084F82F
:1025F000800070BD022070BD70B5044690F8800068
:1026000001281DD0012084F880002420C4F8840013
:1026100020680568026822F0010202602068826872
:1026200022F060420A438260204601F093FA20685B
:1026300005602020C4F88400002084F8800070BD6C
:10264000022070BD70477047704700002DE9F041CF
:1026500003680446D86919689A6840F60F0528424D
:102660004FF0000509D186067ED501F0200602F064
:1026700080573E4378D0216F27E1A94EA94F1640DD
:102680000F40374370D0C70709D0CF0507D50127C2
:102690001F62D4F88C3043F00103C4F88C308307F8
:1026A0000AD5D30708D0276802233B62D4F88C30C0
:1026B00043F00403C4F88C3043070AD5D30708D08D
:1026C000276804233B62D4F88C3043F00203C4F83B
:1026D0008C3003070CD501F02003334308D0266863
:1026E00008233362D4F88C3043F00803C4F88C30EC
:1026F00003050BD54B0109D526684FF400633362FF
:10270000D4F88C3043F02003C4F88C30D4F88C30EB
:10271000002B3AD0800609D501F0200002F080514C
:10272000084303D0216F09B120468847D4F88C00B4
:1027300021688968490602D410F0280F27D0204666
:1027400001F0C8FA2068806840061BD52068083070
:1027500050E8001F21F0400140E80012002AF5D1A6
:10276000E06F78B1704900E017E08163E06FFEF739
:10277000E5FA002809D0E06F816B00E02046BDE853
:10278000F04108472046FFF75FFFBDE8F081204693
:10279000FFF75AFFC4F88C50F7E7E76E2026012FA9
:1027A0007ED1C7067CD5CF067AD510201862206866
:1027B0008068400642D5E16F086840680004000C5C
:1027C000E3D0B4F85C208242DFD9A4F85E00086848
:1027D000006880062BD4206850E8001F21F4807127
:1027E00040E80012002AF6D12068083050E8001FA7
:1027F00021F0010140E80012002AF5D120680830DC
:1028000050E8001F21F0400140E80012002AF5D1F5
:10281000C4F88860E566216851E8000F20F01000D8
:1028200041E80002002AF6D1E06FFEF752FAB4F850
:102830005C00B4F85E10401A81B22CE0B4F85C0081
:10284000B4F85E10401A81B2B4F85E0000289CD043
:1028500000299AD0226852E8000F20F4907042E8D4
:102860000003002BF6D12E4BDB432068083050E8E4
:10287000002F1A4040E80027002FF6D1C4F88860E6
:10288000E5662567226852E8000F20F0100042E854
:102890000003002BF6D12046FFF786FE75E7FFE721
:1028A000C70209D5570207D54FF480101862204699
:1028B000BDE8F041FFF7C7BE03060AD501F080036B
:1028C00002F40002134304D0616F00297FF456AF75
:1028D0005BE7420611D54A060FD52046016851E84C
:1028E000002F22F0400241E80023002BF6D1C0F86F
:1028F0008460456700F038F947E7020206D54A00D0
:1029000004D52046BDE8F041FFF79CBEC001C5D507
:102910000029C3DA2046BDE8F041FFF746BE0000BB
:102920000100001020010004C13C000810B50400A3
:1029300003D0D4F8840010B107E0012010BD0020BE
:1029400084F88000204600F027F82420C4F8840092
:102950002068016821F001010160204601F0FCFBC4
:102960000128EBD0A06A10B1204601F015F92068CB
:10297000416821F4904141602068816821F02A017A
:1029800081602068016841F0010101602046BDE8D6
:10299000104001F065B9000010B598B0044614214C
:1029A00011A8FDF762FE44216846FDF75EFE1B4953
:1029B0002068884230D101200024CDE90004684617
:1029C000FEF736FC08B1FEF782F91548016E41F4B6
:1029D00080410166016E01F480411691C16C41F0A5
:1029E0000101C164C06C11A900F0010016904FF400
:1029F000C06011900220CDE912040720CDE91440F7
:102A00004FF09040FEF7E8F9002211462520FEF72E
:102A100077FB2520FEF766FB18B010BD003801409B
:102A20000010024030B4D0F88830202B20D1E1B122
:102A3000DAB190F88030012B1AD0012380F8803071
:102A40000023C3660B4C0368A3420BD05B681B02D8
:102A500008D5046854E8003F43F0806344E800353B
:102A6000002DF6D130BC01F0B1BC012030BC704764
:102A70000220FBE7008000400068084988420BD133
:102A80000749084B08784A781A54401C08700122FC
:102A9000491C0548FFF7C6BF7047000000380140D9
:102AA0002800002028020020680100202DE9F843BA
:102AB0000446D0F884001F4616460D46202851D102
:102AC000DDB1D6B194F8800001284BD0012084F804
:102AD00080004FF00008C4F88C802120C4F88400E6
:102AE0001834FEF7A7FAA6878146E68754F8100C3B
:102AF000183CB0F5805F03D004E00120BDE8F88306
:102B0000206920B12E46002584F8808010E0002640
:102B1000FAE78021204601F0E5FCB8B9C6B116F805
:102B2000010B21688862B4F85600401EA4F85600D4
:102B3000B4F856004B464FF0000200970028E8D149
:102B40004FF04001204601F0CDFC30B10320D5E725
:102B500035F8020BC0F30800E3E72020C4F8840036
:102B60000020CBE70220C9E77047FEE700B585B03B
:102B700014216846FDF779FD4FF6FF7000900020A4
:102B80000321CDE90201019069460248FEF724F9CC
:102B900005B000BD0008004800B585B014216846A6
:102BA000FDF763FD4FF6FF700090012001900320B8
:102BB00003900020029069460248FEF70DF905B027
:102BC00000BD00000008004870B5002406462146FC
:102BD000204600F003F900F041F94FF496353046F5
:102BE00000F010F9641CAC42F9D370BD30B587B069
:102BF00014216846FDF739FD1E48C16C41F00401FF
:102C0000C164C16C01F004010591C16C41F0010186
:102C1000C164C16C01F001010591C16C41F0020178
:102C2000C164C06C012500F0020005904FF44870AB
:102C3000CDE9000500240394694602940E48FEF78E
:102C4000CBF8280203940090CDE901544FF0904452
:102C500069462046FEF7C0F8FFF79EFFA06940F4E2
:102C60008070A06104481830016841F40871016067
:102C700007B030BD0010024000040048203AD2B234
:102C8000034B02EB420203EB021200F019B8000002
:102C90005A490008F0B50E460746002540F23F1499
:102CA00007E021463846FFF7E9FF103C6D1CA4B24F
:102CB000761C3278002A01D0142DF2D3F0BD00002A
:102CC0002DE9F04791468A460026044600F086F832
:102CD000DFF84080012700BF00F0C0F85FF000057A
:102CE00039F8160007FA05F10842404601D140883C
:102CF00000E0008800F086F86D1C102DF0D3641CF5
:102D0000E4B25146204600F069F8761C182EE3D351
:102D1000BDE8F0872000002010B5FFF767FF002016
:102D200000F014F8084CA080A088A0F502413039CA
:102D300006D000F019FB002000F008F8A08010BDBC
:102D400000F089FAF7E700002000002070B51D4967
:102D50000A6842F400720A600A6842F480720A60EB
:102D6000184C103C226842F020022260164A106083
:102D7000086840F02000086000BF00BF00BF206866
:102D800040F020002060206840F480702060FFF751
:102D9000EDFE4FF09041886A40F48070886200BF79
:102DA00000BF00BF0848001F006885B2886940F472
:102DB00080708861FFF7F0FE206840F400702060AA
:102DC000284670BD280400481408004801B5BDF825
:102DD00000000149488008BD2000002010B50C46C5
:102DE0000146202000F068F82146BDE8104021206F
:102DF00000F062B801B5BDF800000149088008BDC7
:102E000020000020134A116841F40071116011493B
:102E100010390B6843F480730B600B6843F0200398
:102E20000B600D4B1860106840F02000106000BF70
:102E300000BF00BF086840F020000860086840F448
:102E40008070086000BF00BF00BF086840F40070D9
:102E500008607047280400481408004814490868AE
:102E600040F400700860086840F480700860104802
:102E70001038026842F0200202600E4B22221A60D3
:102E80000A6842F020020A6000BF00BF00BF01686C
:102E900041F020010160016841F48071016000BFD0
:102EA00000BF00BF016841F400710160704700007D
:102EB0002804004814080048184B10B51A6842F45A
:102EC00000721A601A6842F480721A60134A103A4B
:102ED000146844F020041460114C2060186840F01D
:102EE0002000186000BF00BF00BF106840F0200045
:102EF0001060106840F4807010602160186840F025
:102F00002000186000BF00BF00BF106840F0200024
:102F10001060106840F48070106010BD28040048F4
:102F2000140800482DE9F04F87B014216846FDF7DA
:102F30009CFB4648C16C41F00401C164C16C01F0C6
:102F400004010591C16C41F02001C164C16C01F024
:102F500020010591C16C41F00101C164C16C01F017
:102F600001010591C16C41F00201C164C16C01F025
:102F700002010591C16C41F00801C164C06CDFF829
:102F8000D08000F00800059001224FF47F414046B8
:102F9000FEF74BF80022FF214046FEF746F84FF4BB
:102FA00080764FF09049002231464846FEF73DF8C2
:102FB000DFF8A0A0002204215046FEF736F8DFF823
:102FC00098B04FF40877002239465846FEF72DF89E
:102FD0004FF6FF70009001250024CDE901546946A9
:102FE00040460394FDF7F8FECDE900546946484693
:102FF0000295FDF7F1FE07208DE83100694658463D
:10300000FDF7EAFE0096CDE901546946484603946F
:10301000FDF7E2FE04200090CDE9015469465046D8
:103020000394FDF7D9FE0097CDE90154694658464F
:103030000394FDF7D1FEF8020096CDE9010469463C
:103040005846FDF7C9FE07B0BDE8F08F00100240FA
:1030500000080048000C00480004004810B58AB081
:103060000024079408941C2168460994FDF7FDFA92
:1030700016484FF08041016040F21F31C0E9011451
:103080006321C0E903148461FFF7E5F808B1FDF797
:103090001EFE079407A90D480994FEF777FD08B1B5
:1030A000FDF715FE602000901420CDE901040422F4
:1030B000694606480494FFF73CF808B1FDF707FE9F
:1030C0000248FFF70FF80AB010BD000038000020DA
:1030D00010B588B00024174800940194029403941A
:1030E000049405941249069401604F21C0E901142B
:1030F00042F20F71C0E903148461FEF796FD08B136
:10310000FDF7E5FD4FF48050009069460948FEF751
:1031100057FE08B1FDF7DBFD049404A905480694A9
:10312000FEF734FD002801D0FDF7D1FD08B010BD39
:10313000000400408400002010B588B00024174827
:103140000094019402940394049405941249069403
:1031500001604F21C0E9011442F20F71C0E903146C
:103160008461FEF762FD08B1FDF7B1FD4FF48050B8
:10317000009069460948FEF723FE08B1FDF7A7FD58
:10318000049404A905480694FEF700FD002801D028
:10319000FDF79DFD08B010BD00080040D0000020E4
:1031A0003EB500240F48009401940D49029401603B
:1031B00040F21F31C0E9011442F20F718461C16015
:1031C000FEF733FD08B1FDF782FD0094694605481E
:1031D0000294FEF7DBFC002801D0FDF778FD3EBD30
:1031E000001000401C010020184810B5164901606D
:1031F0004FF416514160002181600C22C160C0E98A
:1032000004128161C161016241628162FFF78EFB3C
:1032100008B1FDF75CFD00210C48FFF7EDF908B19E
:10322000FDF755FD00210948FFF7C0F908B1FDF78A
:103230004EFD0648FFF799F9002803D0BDE810407D
:10324000FDF745BD10BD00000038014068010020B9
:10325000FEE7FEE7704730B501210020FFF72CFEA6
:103260004FF47A70FDF725FD00210120FFF724FEC1
:1032700041F290711020FFF71FFE4FF41C516020A7
:10328000FFF71AFE01216120FFF716FE02214620FA
:10329000FFF712FE48F210011320FFF70DFE48F26F
:1032A000FE011220FFF708FE4FF4A0610220FFF795
:1032B00003FE41F230010320FFF7FEFD40F203342C
:1032C00021463020FFF7F8FD21463120FFF7F4FDBD
:1032D00021463220FFF7F0FDE51E29463320FFF797
:1032E000EBFD03213420FFF7E7FD21463520FFF7F2
:1032F000E3FD14213620FFF7DFFD21463720FFF7DD
:10330000DBFD21463820FFF7D7FD21463920FFF7A6
:10331000D3FD29463A20FFF7CFFD03213B20FFF7DD
:10332000CBFD21463C20FFF7C7FD4FF4A0513D20C7
:10333000FFF7C2FD4FF400719220FFF7BDFD21465B
:103340009320FFF7B9FD40F60D019020FFF7B4FD83
:1033500041F218010320FFF7AFFDBDE8304040F215
:1033600073110720FFF7A8BD10B543F20801E32051
:10337000FFF7A2FD1221E720FFF79EFD41F2312168
:10338000EF20FFF799FD00210120FFF795FD4FF495
:10339000E0610220FFF790FD41F230010320FFF7CA
:1033A0008BFD00210420FFF787FD40F20721082054
:1033B000FFF782FD00210920FFF77EFD00210A2092
:1033C000FFF77AFD00210C20FFF776FD00210D208C
:1033D000FFF772FD00210F20FFF76EFD0021102086
:1033E000FFF76AFD07211120FFF766FD002112207B
:1033F000FFF762FD00211320FFF75EFDC820FDF7F7
:10340000D9FC41F290611020FFF756FD40F22721D0
:103410001120FFF751FD3220FDF7CCFC1D211220B9
:10342000FFF74AFD3220FDF7C5FC4FF40061132081
:10343000FFF742FD14212920FFF73EFD0B212B2031
:10344000FFF73AFD3220FDF7B5FC00212020FFF701
:1034500033FD00212120FFF72FFD07213020FFF74A
:103460002BFD40F207713120FFF726FD06213220A7
:10347000FFF722FD40F204713520FFF71DFD41F6F4
:1034800004713620FFF718FD04213720FFF714FDE3
:1034900000213820FFF710FD40F206713920FFF7B8
:1034A0000BFD40F201713C20FFF706FD0F213D208E
:1034B000FFF702FD00215020FFF7FEFCEF21512015
:1034C000FFF7FAFC00215220FFF7F6FC40F23F1113
:1034D0005320FFF7F1FC4FF41C516020FFF7ECFC88
:1034E00001216120FFF7E8FC00216A20FFF7E4FCDE
:1034F00000218020FFF7E0FC00218120FFF7DCFCA9
:1035000000218220FFF7D8FC00218320FFF7D4FCA4
:1035100000218420FFF7D0FC00218520FFF7CCFCA0
:1035200010219020FFF7C8FC00219220FFF7C4FC77
:1035300003219320FFF7C0FC4FF488719520FFF71B
:10354000BBFC00219720FFF7B7FC00219820FFF774
:10355000B3FC41F218010320FFF7AEFCBDE81040B8
:1035600040F273110720FFF7A7BC000030B52C4CC8
:1035700087B02078072804D02AA16846FCF722FFEC
:103580003CE006AB05AA29A12A48FCF79FFF05A944
:103590000020FFF77FFB06A91820FFF77BFB9DF8B3
:1035A00014009DF81610303800EBC00202EB00103A
:1035B00001EB80009DF8151001EB81021E4901EB23
:1035C000420202441D48C3689A4212D19DF8182055
:1035D0009DF81A30303A02EBC20505EB021203EBFC
:1035E00082029DF8193003EB830301EB4301114480
:1035F000C160C26812A16846FCF7E4FE6846FCF7A9
:10360000F3FF82B2322369460E48FFF74FFA0020DB
:10361000207007B01E21BDE830400648FDF703B812
:10362000280000206572726F720A00002533732D26
:103630002533730028020020F0FDFFFF000000206A
:1036400025640A00680100207047FDF7F9BC00B549
:1036500093B038216846FDF708F814210EA8FDF74D
:1036600004F84FF40070FDF77DFD0220C1010391C5
:10367000402104910121CDE9080100900A21CDE902
:103680000A1007900C900D906846FEF75FF808B19D
:1036900072B6FEE70F200E9003200F9000201090CE
:1036A0001190129002210EA8FDF706FF002801D00C
:1036B00072B6FEE713B000BD0248016841F4700124
:1036C0000160704788ED00E00148FEF70DBC000086
:1036D000840000200148FEF707BC0000D000002055
:1036E0000148FEF701BC00001C0100202DE9F04359
:1036F0000268234B234D244E244C4FF080499842BE
:1037000007D0484505D0A84203D0B04201D0A0421E
:1037100003D122F070074A683A431D4FDFF874C0A6
:10372000DFF8748098420DD048450BD0A84209D0EC
:10373000B04207D0A04205D0B84203D0604501D0C6
:10374000404503D122F44075CA682A434D6922F0EE
:1037500080022A4302608A68C2620A6882629842D2
:1037600007D0A04205D0B84203D0604501D0404503
:1037700001D10969016301214161BDE8F0830000C5
:10378000002C0140000400400008004000340140CB
:1037900000400140004401400048014010B501F0E4
:1037A0001F030121046A99408C430462016A9A4014
:1037B0001143016210BD10B5846842EA032224F46B
:1037C0007F440A432243826010BD00008268034B9D
:1037D0001A400A4342F00701816070478FFFCFFF14
:1037E0002DE9F043026A22F001020262056A436891
:1037F00082691C4C25F0020522400C6822F003026D
:1038000014438A68194E2A43174D194FDFF864C0D4
:10381000DFF86490A84207D0B04205D0B84203D088
:10382000604501D0484506D122F00808CA6842EA3E
:10383000080222F00402A84207D0B04205D0B842E4
:1038400003D0604501D0484505D14D6923F440734C
:103850001D438B692B434360846149684163026265
:10386000BDE8F0838FFFFEFF002C014000340140D3
:10387000004001400044014000480140F0B5026AA8
:1038800022F010020262056A42688369194C1B4EDD
:1038900023400C6823F4407343EA042425F02003FA
:1038A0008D6843EA0513144DA84201D0B04206D1F9
:1038B000CF6823F0800343EA071323F04003A842B4
:1038C0000AD0B04208D00E4DA84205D00D4DA842F6
:1038D00002D00D4DA84207D14D6922F4406242EA60
:1038E00085028D6942EA850242608461496881638C
:1038F0000362F0BDFF8FFFFE002C01400034014049
:10390000004001400044014000480140F0B5026A17
:1039100022F480720262056A4368C269194C1B4E28
:1039200022400C6822F00302144325F400728D68D3
:1039300042EA0522144DA84201D0B04206D1CF6818
:1039400022F4006242EA072222F48062A8420AD0EE
:10395000B04208D00E4DA84205D00E4DA84202D06C
:103960000D4DA84207D14D6923F4405343EA051396
:103970008D6943EA05134360C4614968C16302620B
:10398000F0BD00008FFFFEFF002C0140003401401D
:10399000004001400044014000480140F0B5026A87
:1039A00022F480520262056A4268C369194C1B4EB8
:1039B00023400C6823F4407343EA042425F40053A5
:1039C0008D6843EA0533144DA84201D0B04206D1B8
:1039D000CF6823F4004343EA073323F48043A8422B
:1039E0000AD0B04208D00E4DA84205D00D4DA842D5
:1039F00002D00D4DA84207D14D6922F4404242EA5F
:103A000085128D6942EA85124260C4614968016489
:103A10000362F0BDFF8FFFFE002C01400034014027
:103A200000400140004401400048014030B5026AB6
:103A300022F480320262046A4268036D114D2B4009
:103A40000D681D4324F400330C8943EA04430E4CF3
:103A5000A0420BD00D4CA04208D00D4CA04205D086
:103A60000C4CA04202D00C4CA04204D14C6922F470
:103A7000803242EA0422426005654968816403623B
:103A800030BD00008FFFFEFF002C014000340140DC
:103A900000400140004401400048014030B5026A46
:103AA00022F480120262046A4268036D114D24F40C
:103AB00000142B400D6843EA05230D8944EA0554A0
:103AC0000D4DA8420BD00D4DA84208D00C4DA84278
:103AD00005D00C4DA84202D00B4DA84204D14D692F
:103AE00022F4802242EA8522426003654968C1646B
:103AF000046230BDFF8FFFFE002C01400034014006
:103B000000400140004401400048014010B5036AF4
:103B1000046A24F001040462846924F0F00444EA95
:103B2000021423F00A020A438461026210BD10B538
:103B3000036A23F0100303628369046A23F4704369
:103B400043EA023224F0A00343EA011182610162D8
:103B500010BD000030B5416EB9B10268916892683D
:103B6000C1F342610B4B520F9C5CE50003F108046A
:103B7000A25CB5FBF2F2A0F86A205A5C615CD2004C
:103B8000B2FBF1F1A0F8681030BD0121A0F86A1075
:103B9000F8E700003249000890F82810C90706D05D
:103BA00001684A68C36A22F400321A434A6090F8F6
:103BB0002810890706D501684A68036B22F4803211
:103BC0001A434A6090F82810490706D501684A68E8
:103BD000436B22F480221A434A6090F828100907A8
:103BE00006D501684A68836B22F400421A434A6092
:103BF00090F82810C90606D501688A68C36B22F4BC
:103C000080521A438A6090F82810890606D5016808
:103C10008A68036C22F400521A438A6090F82810D4
:103C2000490611D501684A68436C22F480121A4390
:103C30004A60416CB1F5801F06D101684A68836C07
:103C400022F4C0021A434A6090F82810090606D5EB
:103C500001684A68C06C22F4002202434A6070473F
:103C6000F8B500260446C0F88C60FDF7E3F9054678
:103C7000206800686FF07E47000708D52B460022B9
:103C80004FF400112046009700F02CFC60B920682A
:103C9000006840070AD52B4600224FF480012046D9
:103CA000009700F01FFC08B10320F8BD2020C4F8E5
:103CB0008400C4F8880044F86C6F00202675F8BDB5
:103CC00010B5806A0021A0F85E10A0F85610FEF72B
:103CD000BBFC10BD10B5026852E8001F21F49071C2
:103CE00042E80013002BF6D10E4B0268083252E86E
:103CF000001F194042E80014002CF6D1C16E0129C2
:103D000008D1016851E8002F22F0100241E8002399
:103D1000002BF6D12021C0F888100021C166016770
:103D200010BD0000FEFFFFEF10B5B0F86020D0F826
:103D300088300168222B04D0886940F0080088612F
:103D400010BD496A836D11401980816D891C8165A0
:103D5000B0F85E10491EA0F85E10B0F85E100029A1
:103D6000EED1026852E8001F21F4907142E800137E
:103D7000002BF6D10168083151E8002F22F0010232
:103D800041E80023002BF5D12021C0F88810002144
:103D90000167C26E012A02D0FEF76EFE10BDC16639
:103DA000026852E8001F21F0100142E80013002BC6
:103DB000F6D10168CA69D243D20601D410220A6240
:103DC000B0F85C10FEF7F0FB10BD00002DE9F047E5
:103DD0000446B0F860600068C569D0F800A0D0F86B
:103DE0000880D4F88810222905D0816941F00801A3
:103DF0008161BDE8F087B4F868704FF0000963E0B6
:103E00002068406AA16D30400880A06D801CA065CC
:103E1000B4F85E00401EA4F85E002068C56969071A
:103E200030D0E9070AD05FEACA5107D50121016203
:103E3000D4F88C0040F00100C4F88C00A8070BD522
:103E40005FEAC87008D0216802200862D4F88C00AC
:103E500040F00400C4F88C0068070BD55FEAC87016
:103E600008D0216804200862D4F88C0040F00200D9
:103E7000C4F88C00D4F88C0020B12046FEF7E4FB97
:103E8000C4F88C90B4F85E00F0B9216851E8000FD6
:103E900020F4807041E80002002AF6D1264A20680A
:103EA000083050E8001F114040E80013002BF6D105
:103EB0002020C4F88800C4F87090E16E48460129BB
:103EC00023D02046FEF7D8FD0FB1A80698D4B4F849
:103ED0005E0000288DD0B4F86810814289D920682E
:103EE000083050E8001F21F0805140E80012002AFD
:103EF000F5D112482067206850E8001F41F02001EA
:103F000040E80012002AF6D173E7E066216851E824
:103F1000000F20F0100041E80002002AF6D12068CE
:103F2000C169C943C90601D410210162B4F85C100B
:103F30002046FEF739FBC7E7FEFFFFEF293D0008EB
:103F400010B5B0F86020D0F888300168222B04D07A
:103F5000886940F00800886110BD496A1140826D8F
:103F60001170816D491C8165B0F85E10491EA0F882
:103F70005E10B0F85E100029EED1026852E8001F12
:103F800021F4907142E80013002BF6D1016808314A
:103F900051E8002F22F0010241E80023002BF5D167
:103FA0002021C0F8881000210167C26E012A02D0CA
:103FB000FEF762FD10BDC166026852E8001F21F0E5
:103FC000100142E80013002BF6D10168CA69D24300
:103FD000D20601D410220A62B0F85C10FEF7E4FAAF
:103FE00010BD00002DE9F0470446B0F8606000689D
:103FF000C569D0F800A0D0F80880D4F8881022292C
:1040000005D0816941F008018161BDE8F087B4F80D
:1040100068704FF0000963E02068406AA16D30408D
:104020000870A06D401CA065B4F85E00401EA4F8A6
:104030005E002068C569690730D0E9070AD05FEAE9
:10404000CA5107D501210162D4F88C0040F001006B
:10405000C4F88C00A8070BD55FEAC87008D02168A7
:1040600002200862D4F88C0040F00400C4F88C00F0
:1040700068070BD55FEAC87008D021680420086281
:10408000D4F88C0040F00200C4F88C00D4F88C0006
:1040900020B12046FEF7D8FAC4F88C90B4F85E0040
:1040A000F0B9216851E8000F20F4807041E8000267
:1040B000002AF6D1264A2068083050E8001F114037
:1040C00040E80013002BF6D12020C4F88800C4F883
:1040D0007090E16E4846012923D02046FEF7CCFCC3
:1040E0000FB1A80698D4B4F85E0000288DD0B4F8BB
:1040F0006810814289D92068083050E8001F21F0FB
:10410000805140E80012002AF5D11248206721684A
:1041100051E8000F40F0200041E80002002AF6D1EB
:1041200073E7E066216851E8000F20F0100041E8D5
:104130000002002AF6D12068C169C943C90601D42A
:1041400010210162B4F85C102046FEF72DFAC7E793
:10415000FEFFFFEF413F00082DE9F04104460168F2
:1041600080682269E3691043626900251A4310439D
:10417000DFF82CC20A688B4B1A4002430A602068A1
:104180004168E26821F44051114341602168A0690F
:10419000614501D0226A10438A68834B1A4002436A
:1041A0008A602068C16A626A21F00F011143C1620E
:1041B0007E4923687E488B420DD1D0F8880010F0EC
:1041C000030006D0012855D0022842D003283FD151
:1041D00052E001203DE077498B420BD1D0F88800B6
:1041E00010F00C0035D0042833D0082840D00C281B
:1041F0002ED141E070498B420BD1D0F8880010F0ED
:10420000300026D0102835D0202831D030281FD1BA
:1042100032E06A498B420BD1D0F8880010F0C00020
:1042200017D0402826D0802822D0C02810D123E0E3
:1042300063450DD1D0F8880010F4406009D0B0F586
:10424000806F17D0B0F5006F12D0B0F5406F13D06B
:1042500010205B495B4F00264FF4004263453BD181
:1042600060B1022813D004280BD0082872D10DE0C9
:104270000220EEE70420ECE70820EAE7FDF70AFA5F
:1042800001E0FDF72BFA010001D17CE01146606AE4
:1042900037F810206768B1FBF2F007EB4703834261
:1042A00070D8B0EB073F6DD8002308461946FCF7DD
:1042B00011F8090241EA10610202780810187141F0
:1042C0003A460023FCF706F83F4AA0F540719142B8
:1042D00058D82168C86056E0E3694FF6EF789342FA
:1042E0002CD109284ED2DFE800F00508114D0D4D04
:1042F0004D4D1000FDF7CEF901E0FDF7DDF90100AD
:1043000004D140E0FDF7EAF9F9E71146606A37F8B1
:104310001000B1FBF0F04100606801EB5001B1FB0F
:10432000F0F0A0F1100141452CD84FF6F07101409A
:10433000C0F3420001432068C16024E0092821D273
:10434000DFE800F0050912200E2020201100FDF703
:10435000A1F902E016E0FDF7AFF9010004D112E087
:10436000FDF7BCF9F9E71146606A37F81000B1FBB8
:10437000F0F1606801EB5001B1FBF0F0A0F1100129
:1043800041450AD901250120A4F86A0024F8680FE4
:104390002846A660E660BDE8F08180B299E700009B
:1043A00000800040F369FFCFFFF4FF1100380140A7
:1043B000001002400044004000480040004C004013
:1043C0000024F4001A490008FFFC0F0070B5816555
:1043D000A0F85C20A0F85E200021016783684FF4FC
:1043E0008055FF24AB4204D10369FBB940F2FF13AF
:1043F00022E07F26C3B1B3F1805F1AD0A0F860102D
:10440000C0F88C102223C0F888300368083353E8C2
:10441000004F44F0010443E80046002EF5D1436EFE
:10442000B3F1005F0ED032E0036943B9A0F86040F9
:10443000E6E703691BB13F23A0F86030E0E7A0F88E
:104440006060DDE7B0F86830934220D88268AA4205
:1044500001D10269CAB11F4A026780F88010016960
:1044600041B1026852E8001F41F4807142E8001334
:10447000002BF6D10168083151E8002F42F080523C
:1044800041E80023002BF5D121E0134AE4E78268DC
:10449000AA4201D102697AB1104A026780F88010FD
:1044A000016959B1026852E8001F41F4907142E875
:1044B0000013002BF6D10AE0094AEEE7026852E841
:1044C000001F41F0200142E80013002BF6D100202C
:1044D00070BD0000E53F0008CD3D0008413F0008E9
:1044E000293D00082DE9F0479A4617460E46044636
:1044F0004FF000094FF02008089D4AE0681C48D0A2
:10450000FCF798FDA0EB0A00A8422AD84DB320681A
:10451000016849073DD5C069C043000539D4216809
:104520004FF400600862206850E8001F21F4D07149
:1045300040E80012002AF6D12068083050E8001F39
:1045400021F0010140E80012002AF5D144F8848FDF
:10455000C4F80480C4F8088004F8049C0320BDE873
:10456000F087216851E8000F20F4D07041E8000284
:10457000002AF6D12068083050E8001F21F0010120
:1045800040E80012002AF5D144F8848FC4F8048072
:10459000E2E72068C06936EA000004D00020B84293
:1045A000ACD00020DBE70120F9E700000148FEF76E
:1045B0004DB8000068010020FEE70907090E002839
:1045C00004DB00F1E02080F80014704700F00F00D9
:1045D00000F1E02080F8141D704700002DE9F04143
:1045E000344E0127344CB078002548B16078E0B3F0
:1045F0006079401CC0B260710A2800D36571B57043
:10460000B07B48B1A07888B3A079401CC0B2A0713B
:104610000A2800D3A571B573B07E48B1E07830B3F5
:10462000E079401CC0B2E0710A2800D3E571B5768C
:1046300096F8260000283BD06079642110FB01F039
:10464000A17901EB810100EB4100E1790844E168C7
:1046500088421BD127700020FEF7B6FA012000F037
:1046600031F80A226421880002E009E00AE00BE048
:1046700000F08EF81148FDF74FFB2572657215E0CA
:104680006770BCE7A770C6E7E770D0E76571A571F2
:10469000E5716570A570E570207A401CC0B220728B
:1046A000032802D30648FDF737FB677286F82650C9
:1046B000BDE8F081F801002000000020D0000020BB
:1046C0001C01002070B50D4D044601224FF6FF710C
:1046D0002846FCF7AAFC210200222846FCF7A5FC8C
:1046E000074C012204212046FCF79FFC2046BDE830
:1046F000704000220421FCF798BC0000000800482C
:10470000000C0048FCF7A4FCFEF7A1FFFEF70AFC32
:10471000FEF76AFDFEF7DCFCFEF7A0FCFEF70CFDE1
:10472000FEF73EFDFEF7F8FA012214491448FEF7A1
:1047300079F91448FDF7F0FA04211348FDF7D0FD8C
:104740000020FFF7BFFF0020FEF73EFA0020FEF733
:104750003DFB4FF6FF70FEF74DFB0C4C25783DB14D
:104760000120FCF727FB2078A84201D1FEF7FEFECE
:10477000FFF734FF00F01EF8F0E7000029000020EA
:10478000680100208400002038000020280000205C
:10479000074B30B41C68401EA0621868491EC162F5
:1047A000D9601868826330BC01211846FDF788BBC8
:1047B0003800002010B52B4C88B02078E8B12AA131
:1047C0001820FEF767FA4FF08044A06A2949401C80
:1047D000B1FBF0F06421B0FBF1F227A16846FBF7D2
:1047E000F1FD69464820FEF755FAA26B25A16846FF
:1047F000FBF7E8FD6946602029E0207920B1002020
:10480000FEF7E2F90020207121A11820FEF742FAFC
:10481000607800B3627921A16846FBF7D3FD694651
:104820004820FEF737FAA078B8B1A2791EA16846F1
:10483000FBF7C8FD69466020FEF72CFAE07870B1FE
:10484000E2791CA16846FBF7BDFD69467820FEF7BA
:1048500021FA08B010BD1AA1E2E71CA1EBE71EA1E6
:10486000F4E70000000000202020202020205354E6
:104870004100000000B4C4042020202020463A2536
:1048800064485A002020202020463A25642525002F
:1048900020202020202050534400000020202020F1
:1048A00042313A25640000002020202042323A257F
:1048B000640000002020202042333A2564000000DC
:1048C0002020202042313A400000000020202020FB
:1048D00042323A40000000002020202042333A407B
:1048E0000000000010B500290AD00878002807D081
:1048F00005487844FCF79AF9002801D0002010BD43
:104900000248784410BD00005A1200005212000004
:104910004FF04070E1EE100A704701000200040001
:10492000060008000A000C00100020004000800073
:10493000000101010103070100000804020408014D
:10494000010100000000000000000102030406074E
:10495000080900000000010203040000000000003C
:104960000000000000000000000000000000000047
:104970000000000000000000000000000000000037
:104980000000000000000000000000008001800125
:10499000800180018001800180018001800180010F
:1049A0008001800180010000000080018001000082
:1049B0000000000000000000000000000000CC002B
:1049C000CC00CC00CC00CC00CC00000000000000EB
:1049D00000000000000000000000000000000000D7
:1049E00000000000000000000000000000000000C7
:1049F000000000000000600C600C600C3006300607
:104A0000FE1FFE1F300638071803FE1FFE1F180387
:104A100018038C018C018C01000000008000E00371
:104A2000F80F9C0E8C1C8C188C009800F801E00785
:104A3000800E801C8C188C189C18B80CF00FE003AA
:104A40008000800000000000000000000000000066
:104A50000E181B0C110C11061106110311039B01FA
:104A60008E01C038C06C6044604430443044184407
:104A7000186C0C380000000000000000E001F0039A
:104A80003807180618063003F001F000F8009C31D2
:104A90000E33061E061C061C063FFC73F0210000A8
:104AA00000000000000000000000000000000C00FA
:104AB0000C000C000C000C000C00000000000000BA
:104AC00000000000000000000000000000000000E6
:104AD00000000000000000000000000000020003D1
:104AE0008001C000C0006000600030003000300075
:104AF0003000300030003000300060006000C00046
:104B0000C0008001000300020000000020006000DF
:104B1000C0008001800100030003000600060006BB
:104B200000060006000600060006000300038001E0
:104B30008001C000600020000000000000000000B4
:104B4000000000000000C000C000D806F807E00127
:104B500030033807000000000000000000000000E3
:104B60000000000000000000000000000000000045
:104B700000000000000080018001800180018001B0
:104B8000FC3FFC3F8001800180018001800100002A
:104B90000000000000000000000000000000000015
:104BA0000000000000000000000000000000000005
:104BB00000000000000000000000000080018001F3
:104BC0000001000180000000000000000000000063
:104BD00000000000000000000000000000000000D5
:104BE0000000E007E00700000000000000000000F7
:104BF00000000000000000000000000000000000B5
:104C000000000000000000000000000000000000A4
:104C1000000000000000000000000000C000C00014
:104C2000000000000000000000000000000C000C6C
:104C30000006000600060003000300038003800155
:104C400080018001C000C000C00060006000000062
:104C5000000000000000000000000000E003F0077A
:104C6000380E180C0C180C180C180C180C180C1802
:104C70000C180C180C18180C380EF007E003000084
:104C800000000000000000000000000000018001A2
:104C9000C001F0019801880180018001800180013C
:104CA000800180018001800180018001800100007D
:104CB000000000000000000000000000E003F80F0A
:104CC000180C0C180C1800180018000C0006000333
:104CD0008001C000600030001800FC1FFC1F0000B5
:104CE000000000000000000000000000E001F807E4
:104CF000180E0C0C0C0C000C0006C003C007000CB6
:104D0000001800180C180C18180CF807E003000025
:104D1000000000000000000000000000000C000E79
:104D2000000F000F800DC00C600C600C300C180CD4
:104D30000C0CFC3FFC3F000C000C000C000C0000B5
:104D4000000000000000000000000000F80FF80F55
:104D5000180018000C00EC03FC071C0E001C0018C7
:104D6000001800180C181C0C180EF807E0030000BF
:104D7000000000000000000000000000C007F00F6D
:104D8000381C181818000C00CC03EC0F3C0E1C1C2F
:104D90000C180C180C18181C380EF007E003000053
:104DA000000000000000000000000000FC1FFC1FCD
:104DB000000C00060006000380038001C001C00053
:104DC000E000600060007000300030003000000043
:104DD000000000000000000000000000E003F007F9
:104DE000380E180C180C180C3806F007F007180CC1
:104DF0000C180C180C180C18380CF80FE0030000F5
:104E0000000000000000000000000000E003F007C8
:104E1000380E1C0C0C180C180C181C1C381EF81B17
:104E2000E0190018000C000C1C0EF807F00100003F
:104E30000000000000000000000000000000000072
:104E40000000000000008001800100000000000060
:104E50000000000000000000000080018001000050
:104E60000000000000000000000000000000000042
:104E70000000000000008001800100000000000030
:104E8000000000000000000000008001800100011F
:104E90000001800000000000000000000000000091
:104EA000000000000000000000000010001C800F47
:104EB000E003F8001800F800E003800F001C001069
:104EC00000000000000000000000000000000000E2
:104ED00000000000000000000000F81F00000000BB
:104EE0000000F81F000000000000000000000000AB
:104EF00000000000000000000000000000000000B2
:104F00000000000000000000000008003800F00170
:104F1000C007001F0018001FC007F001380008007C
:104F2000000000000000000000000000E003F80F97
:104F3000180C0C180C180018000C00060003800157
:104F4000C000C000C00000000000C000C0000000A1
:104F50000000000000000000000000000000E0076A
:104F600018180420C229224A11440944094409445A
:104F700009221113E20C024004201818E007000077
:104F8000000000000000000000000000800380031B
:104F9000C006C006C006600C600C3018301830180F
:104FA000F83FF83F1C700C600C6006C006C00000A3
:104FB000000000000000000000000000FC03FC0FE7
:104FC0000C0C0C180C180C180C0CFC07FC0F0C1813
:104FD0000C300C300C300C300C18FC1FFC0700009F
:104FE000000000000000000000000000C007F01FEB
:104FF00038381C300C7006600600060006000600FB
:105000000600060006600C701C30F01FE007000070
:10501000000000000000000000000000FE03FE0F82
:10502000060E061806180630063006300630063022
:105030000630063006180618060EFE0FFE030000A6
:10504000000000000000000000000000FC3FFC3FEA
:105050000C000C000C000C000C00FC1FFC1F0C00D2
:105060000C000C000C000C000C00FC3FFC3F00008E
:10507000000000000000000000000000F83FF83FC2
:1050800018001800180018001800F81FF81F180062
:105090001800180018001800180018001800000068
:1050A000000000000000000000000000E00FF83FDA
:1050B0003C780E6006E007C00300030003FE03FE19
:1050C00003C007C006C00EC03CF0F83FE00F000070
:1050D0000000000000000000000000000C300C3058
:1050E0000C300C300C300C300C30FC3FFC3F0C30E2
:1050F0000C300C300C300C300C300C300C3000000C
:10510000000000000000000000000000800180019D
:105110008001800180018001800180018001800187
:1051200080018001800180018001800180010000F8
:105130000000000000000000000000000006000663
:10514000000600060006000600060006000600062F
:1051500000060006180618063807F003E0010000F4
:1051600000000000000000000000000006300618EB
:10517000060C060606038601C60066007600DE0001
:105180008E0106030606060C0618063006600000AF
:1051900000000000000000000000000018001800DF
:1051A000180018001800180018001800180018003F
:1051B00018001800180018001800F81FF81F000049
:1051C0000000000000000000000000000EE01EF0E3
:1051D0001EF01EF036D836D836D836D866CC66CC17
:1051E00066CCC6C6C6C6C6C6C6C686C386C30000CB
:1051F0000000000000000000000000000C301C3027
:105200003C303C306C306C30CC30CC308C310C339A
:105210000C330C360C360C3C0C3C0C380C300000BB
:10522000000000000000000000000000E007F81F80
:105230001C380E70066003C003C003C003C003C067
:1052400003C003C006600E701C38F81FE0070000A2
:10525000000000000000000000000000FC0FFC1F28
:105260000C380C300C300C300C300C18FC1FFC07C8
:105270000C000C000C000C000C000C000C000000DA
:10528000000000000000000000000000E007F81F20
:105290001C380E70066003E003C003C003C003C0E7
:1052A00003C007E006630E3F1C3CF83FE0F700C078
:1052B000000000000000000000000000FE0FFE1FC4
:1052C00006380630063006300638FE1FFE07060395
:1052D0000606060C061806180630063006600000A2
:1052E000000000000000000000000000E003F80FD4
:1052F0001C0C0C180C180C001C00F803E00F001E0E
:105300000038063006300E301C1CF80FE007000095
:10531000000000000000000000000000FE7FFE7F93
:105320008001800180018001800180018001800175
:1053300080018001800180018001800180010000E6
:105340000000000000000000000000000C300C30E5
:105350000C300C300C300C300C300C300C300C306D
:105360000C300C300C300C301818F81FE00700001F
:105370000000000000000000000000000360063094
:10538000063006300C180C180C18180C180C380EB7
:1053900030063006700760036003C001C0010000E2
:1053A0000000000000000000000000000360C36176
:1053B000C361C3616633663366336633663366330F
:1053C0006C1B6C1B6C1B2C1A3C1E380E380E00001C
:1053D0000000000000000000000000000FE00C7062
:1053E00018303018700C600EC00780038003C003B3
:1053F000E006700C301C18180C300E6007E000003E
:1054000000000000000000000000000003C0066073
:105410000C301C383818300C6006E007C0038001DF
:1054200080018001800180018001800180010000F5
:10543000000000000000000000000000FC7FFC7F76
:10544000006000300018000C000600038001C0005E
:105450006000300018000C000600FE7FFE7F000098
:10546000000000000000000000000000E003E00376
:10547000600060006000600060006000600060002C
:10548000600060006000600060006000600060001C
:1054900060006000E003E003000000003000300026
:1054A000600060006000C000C000C000C00180015A
:1054B00080018001000300030003000600060000D5
:1054C000000000000000000000000000E003E00316
:1054D00000030003000300030003000300030003B4
:1054E00000030003000300030003000300030003A4
:1054F00000030003E003E003000000000000C0011F
:10550000C00160036003600330063006180C180CFD
:10551000000000000000000000000000000000008B
:10552000000000000000000000000000000000007B
:10553000000000000000000000000000000000006B
:10554000000000000000000000000000FFFFFFFF5F
:105550000000000000000000000000000C000C0033
:105560000C000C000C000C0000000000000000000B
:10557000000000000000000000000000000000002B
:10558000000000000000000000000000000000001B
:10559000000000000000F003F8071C0C0C0C000FCA
:1055A000F00FF80C0C0C0C0C1C0FF80FF01800008E
:1055B00000000000000000000000000018001800BB
:1055C000180018001800D803F80F380C181818180D
:1055D0001818181818181818380CF80FD8030000E5
:1055E00000000000000000000000000000000000BB
:1055F000000000000000C003F007300E180C180077
:10560000180018001800180C300EF007C003000036
:10561000000000000000000000000000001800185A
:10562000001800180018C01BF01F301C181818189C
:105630001818181818181818301CF01FC01B000074
:10564000000000000000000000000000000000005A
:10565000000000000000C003F00F300C1818F81F05
:10566000F81F180018003818301CF00FC007000091
:10567000000000000000000000000000800FC00FCC
:10568000C000C000C000F007F007C000C000C000AC
:10569000C000C000C000C000C000C000C0000000CA
:1056A00000000000000000000000000000000000FA
:1056B000000000000000E00DF80F180E0C0C0C0CA0
:1056C0000C0C0C0C0C0C0C0C180EF80FE00D000C54
:1056D0000C0C1C06F807F001000000001800180070
:1056E000180018001800D807F80F381C18181818D8
:1056F000181818181818181818181818181800005A
:10570000000000000000000000000000C000C00019
:10571000000000000000C000C000C000C000C000C9
:10572000C000C000C000C000C000C000C000000039
:10573000000000000000000000000000C000C000E9
:10574000000000000000C000C000C000C000C00099
:10575000C000C000C000C000C000C000C000C00049
:10576000C000C000F8007800000000000C000C0031
:105770000C000C000C000C0C0C060C038C01CC0073
:105780006C00FC009C018C030C030C060C0C00004C
:10579000000000000000000000000000C000C00089
:1057A000C000C000C000C000C000C000C000C000F9
:1057B000C000C000C000C000C000C000C0000000A9
:1057C00000000000000000000000000000000000D9
:1057D0000000000000007C3CFF7EC7E383C183C162
:1057E00083C183C183C183C183C183C183C10000DD
:1057F00000000000000000000000000000000000A9
:105800000000000000009807F80F381C181818183E
:105810001818181818181818181818181818000038
:105820000000000000000000000000000000000078
:10583000000000000000C003F00F300C181818180A
:105840001818181818181818300CF00FC00300009A
:105850000000000000000000000000000000000048
:10586000000000000000D803F80F380C18181818B2
:105870001818181818181818380CF80FD80318002A
:1058800018001800180018000000000000000000B8
:10589000000000000000C01BF01F301C1818181872
:1058A0001818181818181818301CF01FC01B0018EA
:1058B0000018001800180018000000000000000088
:1058C000000000000000B007F0037000300030005E
:1058D0003000300030003000300030003000000078
:1058E00000000000000000000000000000000000B8
:1058F000000000000000E003F003380E180C380030
:10590000F003C007000C180C380EF007E00300008D
:105910000000000000000000000000000000800007
:10592000C000C000C000F007F007C000C000C00009
:10593000C000C000C000C000C000C0078007000059
:105940000000000000000000000000000000000057
:105950000000000000001818181818181818181857
:105960001818181818181818381CF01FE01900001B
:105970000000000000000000000000000000000027
:105980000000000000000C18180C180C180C300651
:1059900030063006600360036003C001C0010000F0
:1059A00000000000000000000000000000000000F7
:1059B000000000000000C141C141C3616363636333
:1059C00063633636363636361C1C1C1C1C1C000025
:1059D00000000000000000000000000000000000C7
:1059E0000000000000001C38381C300C600660030A
:1059F0006003600360036006300C381C1C38000034
:105A00000000000000000000000000000000000096
:105A10000000000000001830301830187018600CBA
:105A2000600CE00CC006C006800380038003800188
:105A30008001C001F00070000000000000000000C4
:105A4000000000000000FC1FFC1F000C000600030B
:105A50008001C000600030001800FC1FFC1F000027
:105A600000000000000000000000000000038001B2
:105A7000C000C000C000C000C000C00060006000E6
:105A8000300060004000C000C000C000C000C00086
:105A9000C0008001000300000000000080018001C0
:105AA00080018001800180018001800180018001EE
:105AB00080018001800180018001800180018001DE
:105AC0008001800180018001000000006000C000B2
:105AD000C00180018001800180018001000300037A
